{
  "contractName": "DogeToken",
  "abi": [
    {
      "constant": true,
      "inputs": [],
      "name": "MIN_UNLOCK_VALUE",
      "outputs": [
        {
          "name": "",
          "type": "uint256"
        }
      ],
      "payable": false,
      "stateMutability": "view",
      "type": "function"
    },
    {
      "constant": true,
      "inputs": [],
      "name": "name",
      "outputs": [
        {
          "name": "",
          "type": "string"
        }
      ],
      "payable": false,
      "stateMutability": "view",
      "type": "function"
    },
    {
      "constant": false,
      "inputs": [
        {
          "name": "_spender",
          "type": "address"
        },
        {
          "name": "_value",
          "type": "uint256"
        }
      ],
      "name": "approve",
      "outputs": [
        {
          "name": "success",
          "type": "bool"
        }
      ],
      "payable": false,
      "stateMutability": "nonpayable",
      "type": "function"
    },
    {
      "constant": true,
      "inputs": [],
      "name": "totalSupply",
      "outputs": [
        {
          "name": "",
          "type": "uint256"
        }
      ],
      "payable": false,
      "stateMutability": "view",
      "type": "function"
    },
    {
      "constant": false,
      "inputs": [
        {
          "name": "_from",
          "type": "address"
        },
        {
          "name": "_to",
          "type": "address"
        },
        {
          "name": "_value",
          "type": "uint256"
        }
      ],
      "name": "transferFrom",
      "outputs": [
        {
          "name": "success",
          "type": "bool"
        }
      ],
      "payable": false,
      "stateMutability": "nonpayable",
      "type": "function"
    },
    {
      "constant": true,
      "inputs": [],
      "name": "decimals",
      "outputs": [
        {
          "name": "",
          "type": "uint8"
        }
      ],
      "payable": false,
      "stateMutability": "view",
      "type": "function"
    },
    {
      "constant": true,
      "inputs": [
        {
          "name": "",
          "type": "bytes20"
        }
      ],
      "name": "operators",
      "outputs": [
        {
          "name": "ethAddress",
          "type": "address"
        },
        {
          "name": "dogeAvailableBalance",
          "type": "uint256"
        },
        {
          "name": "dogePendingBalance",
          "type": "uint256"
        },
        {
          "name": "nextUnspentUtxoIndex",
          "type": "uint32"
        },
        {
          "name": "ethBalance",
          "type": "uint256"
        },
        {
          "name": "operatorKeyIndex",
          "type": "uint24"
        }
      ],
      "payable": false,
      "stateMutability": "view",
      "type": "function"
    },
    {
      "constant": true,
      "inputs": [
        {
          "name": "",
          "type": "uint32"
        }
      ],
      "name": "unlocksPendingInvestorProof",
      "outputs": [
        {
          "name": "from",
          "type": "address"
        },
        {
          "name": "dogeAddress",
          "type": "string"
        },
        {
          "name": "value",
          "type": "uint256"
        },
        {
          "name": "timestamp",
          "type": "uint256"
        },
        {
          "name": "fee",
          "type": "uint256"
        },
        {
          "name": "operatorPublicKeyHash",
          "type": "bytes20"
        }
      ],
      "payable": false,
      "stateMutability": "view",
      "type": "function"
    },
    {
      "constant": true,
      "inputs": [],
      "name": "version",
      "outputs": [
        {
          "name": "",
          "type": "string"
        }
      ],
      "payable": false,
      "stateMutability": "view",
      "type": "function"
    },
    {
      "constant": true,
      "inputs": [],
      "name": "unlockIdx",
      "outputs": [
        {
          "name": "",
          "type": "uint32"
        }
      ],
      "payable": false,
      "stateMutability": "view",
      "type": "function"
    },
    {
      "constant": true,
      "inputs": [
        {
          "name": "_owner",
          "type": "address"
        }
      ],
      "name": "balanceOf",
      "outputs": [
        {
          "name": "balance",
          "type": "uint256"
        }
      ],
      "payable": false,
      "stateMutability": "view",
      "type": "function"
    },
    {
      "constant": true,
      "inputs": [],
      "name": "symbol",
      "outputs": [
        {
          "name": "",
          "type": "string"
        }
      ],
      "payable": false,
      "stateMutability": "view",
      "type": "function"
    },
    {
      "constant": false,
      "inputs": [
        {
          "name": "_to",
          "type": "address"
        },
        {
          "name": "_value",
          "type": "uint256"
        }
      ],
      "name": "transfer",
      "outputs": [
        {
          "name": "success",
          "type": "bool"
        }
      ],
      "payable": false,
      "stateMutability": "nonpayable",
      "type": "function"
    },
    {
      "constant": true,
      "inputs": [],
      "name": "MIN_LOCK_VALUE",
      "outputs": [
        {
          "name": "",
          "type": "uint256"
        }
      ],
      "payable": false,
      "stateMutability": "view",
      "type": "function"
    },
    {
      "constant": true,
      "inputs": [],
      "name": "trustedDogeRelay",
      "outputs": [
        {
          "name": "",
          "type": "address"
        }
      ],
      "payable": false,
      "stateMutability": "view",
      "type": "function"
    },
    {
      "constant": true,
      "inputs": [
        {
          "name": "",
          "type": "uint256"
        }
      ],
      "name": "operatorKeys",
      "outputs": [
        {
          "name": "key",
          "type": "bytes20"
        },
        {
          "name": "deleted",
          "type": "bool"
        }
      ],
      "payable": false,
      "stateMutability": "view",
      "type": "function"
    },
    {
      "constant": false,
      "inputs": [
        {
          "name": "_spender",
          "type": "address"
        },
        {
          "name": "_value",
          "type": "uint256"
        },
        {
          "name": "_extraData",
          "type": "bytes"
        }
      ],
      "name": "approveAndCall",
      "outputs": [
        {
          "name": "success",
          "type": "bool"
        }
      ],
      "payable": false,
      "stateMutability": "nonpayable",
      "type": "function"
    },
    {
      "constant": true,
      "inputs": [
        {
          "name": "_owner",
          "type": "address"
        },
        {
          "name": "_spender",
          "type": "address"
        }
      ],
      "name": "allowance",
      "outputs": [
        {
          "name": "remaining",
          "type": "uint256"
        }
      ],
      "payable": false,
      "stateMutability": "view",
      "type": "function"
    },
    {
      "constant": true,
      "inputs": [],
      "name": "trustedDogeEthPriceOracle",
      "outputs": [
        {
          "name": "",
          "type": "address"
        }
      ],
      "payable": false,
      "stateMutability": "view",
      "type": "function"
    },
    {
      "constant": true,
      "inputs": [],
      "name": "dogeEthPrice",
      "outputs": [
        {
          "name": "",
          "type": "uint256"
        }
      ],
      "payable": false,
      "stateMutability": "view",
      "type": "function"
    },
    {
      "inputs": [
        {
          "name": "_trustedDogeRelay",
          "type": "address"
        },
        {
          "name": "_trustedDogeEthPriceOracle",
          "type": "address"
        },
        {
          "name": "_collateralRatio",
          "type": "uint8"
        }
      ],
      "payable": false,
      "stateMutability": "nonpayable",
      "type": "constructor"
    },
    {
      "anonymous": false,
      "inputs": [
        {
          "indexed": false,
          "name": "err",
          "type": "uint256"
        }
      ],
      "name": "ErrorDogeToken",
      "type": "event"
    },
    {
      "anonymous": false,
      "inputs": [
        {
          "indexed": true,
          "name": "user",
          "type": "address"
        },
        {
          "indexed": false,
          "name": "value",
          "type": "uint256"
        }
      ],
      "name": "NewToken",
      "type": "event"
    },
    {
      "anonymous": false,
      "inputs": [
        {
          "indexed": false,
          "name": "id",
          "type": "uint32"
        },
        {
          "indexed": false,
          "name": "operatorPublicKeyHash",
          "type": "bytes20"
        }
      ],
      "name": "UnlockRequest",
      "type": "event"
    },
    {
      "anonymous": false,
      "inputs": [
        {
          "indexed": true,
          "name": "_from",
          "type": "address"
        },
        {
          "indexed": true,
          "name": "_to",
          "type": "address"
        },
        {
          "indexed": false,
          "name": "_value",
          "type": "uint256"
        }
      ],
      "name": "Transfer",
      "type": "event"
    },
    {
      "anonymous": false,
      "inputs": [
        {
          "indexed": true,
          "name": "_owner",
          "type": "address"
        },
        {
          "indexed": true,
          "name": "_spender",
          "type": "address"
        },
        {
          "indexed": false,
          "name": "_value",
          "type": "uint256"
        }
      ],
      "name": "Approval",
      "type": "event"
    },
    {
      "constant": false,
      "inputs": [
        {
          "name": "operatorPublicKey",
          "type": "bytes"
        },
        {
          "name": "signature",
          "type": "bytes"
        }
      ],
      "name": "addOperator",
      "outputs": [],
      "payable": false,
      "stateMutability": "nonpayable",
      "type": "function"
    },
    {
      "constant": false,
      "inputs": [
        {
          "name": "operatorPublicKeyHash",
          "type": "bytes20"
        }
      ],
      "name": "deleteOperator",
      "outputs": [],
      "payable": false,
      "stateMutability": "nonpayable",
      "type": "function"
    },
    {
      "constant": true,
      "inputs": [],
      "name": "getOperatorsLength",
      "outputs": [
        {
          "name": "",
          "type": "uint24"
        }
      ],
      "payable": false,
      "stateMutability": "view",
      "type": "function"
    },
    {
      "constant": false,
      "inputs": [
        {
          "name": "operatorPublicKeyHash",
          "type": "bytes20"
        }
      ],
      "name": "addOperatorDeposit",
      "outputs": [],
      "payable": true,
      "stateMutability": "payable",
      "type": "function"
    },
    {
      "constant": false,
      "inputs": [
        {
          "name": "operatorPublicKeyHash",
          "type": "bytes20"
        },
        {
          "name": "value",
          "type": "uint256"
        }
      ],
      "name": "withdrawOperatorDeposit",
      "outputs": [],
      "payable": false,
      "stateMutability": "nonpayable",
      "type": "function"
    },
    {
      "constant": false,
      "inputs": [
        {
          "name": "dogeTx",
          "type": "bytes"
        },
        {
          "name": "txHash",
          "type": "uint256"
        },
        {
          "name": "operatorPublicKeyHash",
          "type": "bytes20"
        }
      ],
      "name": "processTransaction",
      "outputs": [
        {
          "name": "",
          "type": "uint256"
        }
      ],
      "payable": false,
      "stateMutability": "nonpayable",
      "type": "function"
    },
    {
      "constant": true,
      "inputs": [
        {
          "name": "txHash",
          "type": "uint256"
        }
      ],
      "name": "wasDogeTxProcessed",
      "outputs": [
        {
          "name": "",
          "type": "bool"
        }
      ],
      "payable": false,
      "stateMutability": "view",
      "type": "function"
    },
    {
      "constant": false,
      "inputs": [
        {
          "name": "dogeAddress",
          "type": "string"
        },
        {
          "name": "value",
          "type": "uint256"
        },
        {
          "name": "operatorPublicKeyHash",
          "type": "bytes20"
        }
      ],
      "name": "doUnlock",
      "outputs": [
        {
          "name": "success",
          "type": "bool"
        }
      ],
      "payable": false,
      "stateMutability": "nonpayable",
      "type": "function"
    },
    {
      "constant": false,
      "inputs": [
        {
          "name": "_dogeEthPrice",
          "type": "uint256"
        }
      ],
      "name": "setDogeEthPrice",
      "outputs": [],
      "payable": false,
      "stateMutability": "nonpayable",
      "type": "function"
    },
    {
      "constant": true,
      "inputs": [
        {
          "name": "index",
          "type": "uint32"
        }
      ],
      "name": "getUnlockPendingInvestorProof",
      "outputs": [
        {
          "name": "from",
          "type": "address"
        },
        {
          "name": "dogeAddress",
          "type": "string"
        },
        {
          "name": "value",
          "type": "uint256"
        },
        {
          "name": "timestamp",
          "type": "uint256"
        },
        {
          "name": "selectedUtxos",
          "type": "uint32[]"
        },
        {
          "name": "fee",
          "type": "uint256"
        },
        {
          "name": "operatorPublicKeyHash",
          "type": "bytes20"
        }
      ],
      "payable": false,
      "stateMutability": "view",
      "type": "function"
    },
    {
      "constant": true,
      "inputs": [
        {
          "name": "operatorPublicKeyHash",
          "type": "bytes20"
        }
      ],
      "name": "getUtxosLength",
      "outputs": [
        {
          "name": "",
          "type": "uint256"
        }
      ],
      "payable": false,
      "stateMutability": "view",
      "type": "function"
    },
    {
      "constant": true,
      "inputs": [
        {
          "name": "operatorPublicKeyHash",
          "type": "bytes20"
        },
        {
          "name": "i",
          "type": "uint256"
        }
      ],
      "name": "getUtxo",
      "outputs": [
        {
          "name": "value",
          "type": "uint256"
        },
        {
          "name": "txHash",
          "type": "uint256"
        },
        {
          "name": "index",
          "type": "uint16"
        }
      ],
      "payable": false,
      "stateMutability": "view",
      "type": "function"
    }
  ],
  "bytecode": "0x60c0604052600460808190527f48302e310000000000000000000000000000000000000000000000000000000060a09081526200004091600691906200018e565b503480156200004e57600080fd5b50604051606080620035cb833981016040818152825160208085015194830151838501845260098086527f446f6765546f6b656e0000000000000000000000000000000000000000000000838701908152855180870187529182527f444f4745544f4b454e00000000000000000000000000000000000000000000008285015233600090815260019094529483208390558280558551939695919492939192600892620000fe916003916200018e565b506004805460ff191660ff84161790558051620001239060059060208401906200018e565b505060078054600160a060020a03978816600160a060020a0319918216179091556008805460ff909616740100000000000000000000000000000000000000000260a060020a60ff021997909816959091169490941794909416949094179091555062000233915050565b828054600181600116156101000203166002900490600052602060002090601f016020900481019282601f10620001d157805160ff191683800117855562000201565b8280016001018555821562000201579182015b8281111562000201578251825591602001919060010190620001e4565b506200020f92915062000213565b5090565b6200023091905b808211156200020f57600081556001016200021a565b90565b61338880620002436000396000f30060806040526004361061017c5763ffffffff60e060020a60003504166305347cdc811461018157806306fdde03146101a8578063095ea7b31461023257806318160ddd1461026a57806323b872dd1461027f578063313ce567146102a95780633e974531146102d457806341f7a1f71461033d5780634b48a8421461040a57806354fd4d501461042c57806355569d7f146104415780635be3b1b9146104ac578063636a8515146104c3578063657857de146104f15780636d440c6b1461058857806370a08231146105aa5780637b837b7a146105cb57806395d89b41146105f05780639ed0031614610605578063a9059cbb1461061d578063b52d521d14610641578063b71311af14610656578063ba24ecab14610687578063c0f76faf146106b4578063c5a4a2b7146106cc578063cae9ca5114610708578063d48e6a9a14610771578063d63ceb4614610882578063dd62ed3e146108c9578063dd8f13bb146108f0578063f5b2040014610905578063f997d47f1461091a575b600080fd5b34801561018d57600080fd5b50610196610985565b60408051918252519081900360200190f35b3480156101b457600080fd5b506101bd61098d565b6040805160208082528351818301528351919283929083019185019080838360005b838110156101f75781810151838201526020016101df565b50505050905090810190601f1680156102245780820380516001836020036101000a031916815260200191505b509250505060405180910390f35b34801561023e57600080fd5b50610256600160a060020a0360043516602435610a1b565b604080519115158252519081900360200190f35b34801561027657600080fd5b50610196610a81565b34801561028b57600080fd5b50610256600160a060020a0360043581169060243516604435610a87565b3480156102b557600080fd5b506102be610b54565b6040805160ff9092168252519081900360200190f35b3480156102e057600080fd5b506102f66001606060020a031960043516610b5d565b60408051600160a060020a03909716875260208701959095528585019390935263ffffffff9091166060850152608084015262ffffff1660a0830152519081900360c00190f35b34801561034957600080fd5b5061035b63ffffffff60043516610ba8565b60408051600160a060020a038816815290810185905260608101849052608081018390526001606060020a0319821660a082015260c06020808301828152885192840192909252875160e084019189019080838360005b838110156103ca5781810151838201526020016103b2565b50505050905090810190601f1680156103f75780820380516001836020036101000a031916815260200191505b5097505050505050505060405180910390f35b34801561041657600080fd5b506101966001606060020a031960043516610c84565b34801561043857600080fd5b506101bd610ca3565b34801561044d57600080fd5b506040805160206004803580820135601f810184900484028501840190955284845261025694369492936024939284019190819084018382808284375094975050843595505050506020909101356001606060020a0319169050610cfe565b6104c16001606060020a031960043516611172565b005b3480156104cf57600080fd5b506104d86111d3565b6040805163ffffffff9092168252519081900360200190f35b3480156104fd57600080fd5b506040805160206004803580820135601f81018490048402850184019095528484526104c194369492936024939284019190819084018382808284375050604080516020601f89358b018035918201839004830284018301909452808352979a9998810197919650918201945092508291508401838280828437509497506111f89650505050505050565b34801561059457600080fd5b506104c16001606060020a03196004351661154c565b3480156105b657600080fd5b50610196600160a060020a03600435166116c4565b3480156105d757600080fd5b506104c16001606060020a0319600435166024356116df565b3480156105fc57600080fd5b506101bd611804565b34801561061157600080fd5b5061025660043561185f565b34801561062957600080fd5b50610256600160a060020a03600435166024356118ee565b34801561064d57600080fd5b50610196611966565b34801561066257600080fd5b5061066b61196e565b60408051600160a060020a039092168252519081900360200190f35b34801561069357600080fd5b5061069c61197d565b6040805162ffffff9092168252519081900360200190f35b3480156106c057600080fd5b506104c1600435611984565b3480156106d857600080fd5b506106e46004356119a0565b604080516001606060020a0319909316835290151560208301528051918290030190f35b34801561071457600080fd5b50604080516020600460443581810135601f8101849004840285018401909552848452610256948235600160a060020a03169460248035953695946064949201919081908401838280828437509497506119ea9650505050505050565b34801561077d57600080fd5b5061078f63ffffffff60043516611b85565b60408051600160a060020a03891681529081018690526060810185905260a081018390526001606060020a0319821660c082015260e0602080830182815289519284019290925288516080840191610100850191908b019080838360005b838110156108055781810151838201526020016107ed565b50505050905090810190601f1680156108325780820380516001836020036101000a031916815260200191505b508381038252865181528651602091820191808901910280838360005b8381101561086757818101518382015260200161084f565b50505050905001995050505050505050505060405180910390f35b34801561088e57600080fd5b506108a76001606060020a031960043516602435611d03565b60408051938452602084019290925261ffff1682820152519081900360600190f35b3480156108d557600080fd5b50610196600160a060020a0360043581169060243516611d65565b3480156108fc57600080fd5b5061066b611d90565b34801561091157600080fd5b50610196611d9f565b34801561092657600080fd5b506040805160206004803580820135601f810184900484028501840190955284845261019694369492936024939284019190819084018382808284375094975050843595505050506020909101356001606060020a0319169050611da5565b6311e1a30081565b6003805460408051602060026001851615610100026000190190941693909304601f81018490048402820184019092528181529291830182828015610a135780601f106109e857610100808354040283529160200191610a13565b820191906000526020600020905b8154815290600101906020018083116109f657829003601f168201915b505050505081565b336000818152600260209081526040808320600160a060020a038716808552908352818420869055815186815291519394909390927f8c5be1e5ebec7d5bd14f71427d1e84f3dd0314c0f7b2291e5b200ac8c7c3b925928290030190a350600192915050565b60005481565b600160a060020a0383166000908152600160205260408120548211801590610ad25750600160a060020a03841660009081526002602090815260408083203384529091529020548211155b1515610add57600080fd5b600160a060020a038084166000818152600160209081526040808320805488019055938816808352848320805488900390556002825284832033845282529184902080548790039055835186815293519293919260008051602061333d8339815191529281900390910190a35060015b9392505050565b60045460ff1681565b600b60205260009081526040902080546001820154600283015460048401546005850154600690950154600160a060020a03909416949293919263ffffffff9091169162ffffff1686565b6009602090815260009182526040918290208054600180830180548651600261010094831615949094026000190190911692909204601f8101869004860283018601909652858252600160a060020a03909216949293909290830182828015610c525780601f10610c2757610100808354040283529160200191610c52565b820191906000526020600020905b815481529060010190602001808311610c3557829003601f168201915b50505050600283015460038401546005850154600690950154939491939092506c010000000000000000000000000286565b6001606060020a0319166000908152600b602052604090206003015490565b6006805460408051602060026001851615610100026000190190941693909304601f81018490048402820184019092528181529291830182828015610a135780601f106109e857610100808354040283529160200191610a13565b600080606060008060006311e1a300881015610d3c576040805161eab08152905160008051602061331d8339815191529181900360200190a1611166565b33600090815260016020526040902054881115610d7b576040805161eaba8152905160008051602061331d8339815191529181900360200190a1611166565b6001606060020a031987166000908152600b602052604090208054909550600160a060020a03161515610dd0576040805161eac48152905160008051602061331d8339815191529181900360200190a1611166565b8785600101541015610e04576040805161eace8152905160008051602061331d8339815191529181900360200190a1611166565b6040805160e0810182528654600160a060020a031681526001870154602080830191909152600288015482840152600388018054845181840281018401909552808552610ee4948d94938b936060860193909160009084015b82821015610ead5760008481526020908190206040805160608101825260038602909201805483526001808201548486015260029091015461ffff16918301919091529083529092019101610e5d565b50505090825250600482015463ffffffff1660208201526005820154604082015260069091015462ffffff16606090910152612038565b9196509450925090508015610f195760408051828152905160008051602061331d8339815191529181900360200190a1611166565b33600081815260016020908152604080832080548d9003905580518c8152905192939260008051602061333d833981519152929181900390910190a360085460408051750100000000000000000000000000000000000000000090920463ffffffff1682526001606060020a03198916602083015280517fa452c19abf34fda31e59719208cf19c16be3dc9573465e8bf2ec1e4e89d3fad89281900390910190a16040805160e08101825233815260208082018c81528284018c90524260608401526080830188905260a083018790526001606060020a03198b1660c08401526008547501000000000000000000000000000000000000000000900463ffffffff16600090815260098352939093208251815473ffffffffffffffffffffffffffffffffffffffff1916600160a060020a03909116178155925180519293926110689260018501920190613132565b506040820151600282015560608201516003820155608082015180516110989160048401916020909101906131b0565b5060a0820151600582015560c0909101516006909101805473ffffffffffffffffffffffffffffffffffffffff19166c0100000000000000000000000090920491909117905560018581018054848b019003905560028601805484019055845160048701805463ffffffff19811663ffffffff91821690930181169290921790556008805478ffffffff000000000000000000000000000000000000000000198116750100000000000000000000000000000000000000000091829004841685019093160291909117905595505b50505050509392505050565b6001606060020a031981166000908152600b602052604090208054600160a060020a031633146111c4576040805161ea748152905160008051602061331d8339815191529181900360200190a16111cf565b600581018054340190555b5050565b6008547501000000000000000000000000000000000000000000900463ffffffff1681565b60008060008060008087600081518110151561121057fe5b90602001015160f860020a900460f860020a02600160f860020a031916600360f860020a0214945060218801519550600280336040516020018082600160a060020a0316600160a060020a03166c010000000000000000000000000281526014019150506040516020818303038152906040526040518082805190602001908083835b602083106112b25780518252601f199092019160209182019101611293565b51815160209384036101000a600019018019909216911617905260405191909301945091925050808303816000865af11580156112f3573d6000803e3d6000fd5b5050506040513d602081101561130857600080fd5b50516040805160208181019390935281518082038401815290820191829052805190928291908401908083835b602083106113545780518252601f199092019160209182019101611335565b51815160209384036101000a600019018019909216911617905260405191909301945091925050808303816000865af1158015611395573d6000803e3d6000fd5b5050506040513d60208110156113aa57600080fd5b505193506113b88488612194565b92506113c4868661226b565b600160a060020a038481169116146113fe576040805161ea6a8152905160008051602061331d8339815191529181900360200190a1611542565b611408868661237f565b6001606060020a031981166000908152600b6020526040902080549193509150600160a060020a03161561145e576040805161ea748152905160008051602061331d8339815191529181900360200190a1611542565b80543373ffffffffffffffffffffffffffffffffffffffff19918216178255600c805460068401805462ffffff191662ffffff909216919091179055604080518082019091526001606060020a03198516815260006020820181815283546001810185559390915290517fdf6966c971051c3d54ec59162606531493a51404a002842f56009d7e5cf4a8c790920180549151919093166c010000000000000000000000009092049190911774ff0000000000000000000000000000000000000000191674010000000000000000000000000000000000000000911515919091021790555b5050505050505050565b6001606060020a031981166000908152600b602052604081208054909190600160a060020a031633146115a1576040805161ea748152905160008051602061331d8339815191529181900360200190a16116bf565b60018201541515806115b65750600282015415155b806115c45750600582015415155b156115f1576040805161ea7e8152905160008051602061331d8339815191529181900360200190a16116bf565b6006820154600c8054909162ffffff1690811061160a57fe5b60009182526020808320909101805474ff00000000000000000000000000000000000000001916740100000000000000000000000000000000000000001781556001606060020a031986168352600b90915260408220805473ffffffffffffffffffffffffffffffffffffffff1916815560018101839055600281018390559092509061169a600383018261325b565b5060048101805463ffffffff1916905560006005820155600601805462ffffff191690555b505050565b600160a060020a031660009081526001602052604090205490565b6001606060020a031982166000908152600b602052604090208054600160a060020a03163314611731576040805161ea748152905160008051602061331d8339815191529181900360200190a16116bf565b8181600501541015611765576040805161ea888152905160008051602061331d8339815191529181900360200190a16116bf565b600860149054906101000a900460ff1660ff16816002015482600101540102600a548383600501540381151561179757fe5b0410156117c6576040805161ea928152905160008051602061331d8339815191529181900360200190a16116bf565b6005810180548390039055604051339083156108fc029084906000818181858888f193505050501580156117fe573d6000803e3d6000fd5b50505050565b6005805460408051602060026001851615610100026000190190941693909304601f81018490048402820184019092528181529291830182828015610a135780601f106109e857610100808354040283529160200191610a13565b600073__Set___________________________________636ce8e081600d846040518363ffffffff1660e060020a028152600401808381526020018281526020019250505060206040518083038186803b1580156118bc57600080fd5b505af41580156118d0573d6000803e3d6000fd5b505050506040513d60208110156118e657600080fd5b505192915050565b3360009081526001602052604081205482111561190a57600080fd5b33600081815260016020908152604080832080548790039055600160a060020a038716808452928190208054870190558051868152905192939260008051602061333d833981519152929181900390910190a350600192915050565b6308f0d18081565b600754600160a060020a031681565b600c545b90565b600854600160a060020a0316331461199b57600080fd5b600a55565b600c8054829081106119ae57fe5b6000918252602090912001546c010000000000000000000000008102915074010000000000000000000000000000000000000000900460ff1682565b336000818152600260209081526040808320600160a060020a038816808552908352818420879055815187815291519394909390927f8c5be1e5ebec7d5bd14f71427d1e84f3dd0314c0f7b2291e5b200ac8c7c3b925928290030190a383600160a060020a031660405180807f72656365697665417070726f76616c28616464726573732c75696e743235362c81526020017f616464726573732c627974657329000000000000000000000000000000000000815250602e019050604051809103902060e060020a9004338530866040518563ffffffff1660e060020a0281526004018085600160a060020a0316600160a060020a0316815260200184815260200183600160a060020a0316600160a060020a03168152602001828051906020019080838360005b83811015611b2a578181015183820152602001611b12565b50505050905090810190601f168015611b575780820380516001836020036101000a031916815260200191505b509450505050506000604051808303816000875af1925050501515611b7b57600080fd5b5060019392505050565b63ffffffff811660009081526009602090815260408083208054600180830180548551600261010094831615949094026000190190911692909204601f8101879004870283018701909552848252600160a060020a03909216956060959094859487948694859492939092830182828015611c415780601f10611c1657610100808354040283529160200191611c41565b820191906000526020600020905b815481529060010190602001808311611c2457829003601f168201915b50505050509650806002015495508060030154945080600401805480602002602001604051908101604052809291908181526020018280548015611cd057602002820191906000526020600020906000905b82829054906101000a900463ffffffff1663ffffffff1681526020019060040190602082600301049283019260010382029150808411611c935790505b50505060058401546006909401549a9c999b509799969891975091956c0100000000000000000000000002945092505050565b6001606060020a031982166000908152600b6020526040812060038101805483928392909183919087908110611d3557fe5b6000918252602090912060039091020180546001820154600290920154909991985061ffff169650945050505050565b600160a060020a03918216600090815260026020908152604080832093909416825291909152205490565b600854600160a060020a031681565b600a5481565b60075460009081908190819081908190819081908190600160a060020a03163314611dcf57600080fd5b6001606060020a03198a166000908152600b602052604090208054909850600160a060020a03161515611e24576040805161ea9c8152905160008051602061331d8339815191529181900360200190a1612029565b611e2e8c8b612550565b809750819850829950839a505050505073__Set___________________________________63831cb739600d8d6040518363ffffffff1660e060020a028152600401808381526020018281526020019250505060206040518083038186803b158015611e9957600080fd5b505af4158015611ead573d6000803e3d6000fd5b505050506040513d6020811015611ec357600080fd5b50519250821515611ef6576040805161eaa68152905160008051602061331d8339815191529181900360200190a1612029565b6040805160608101825288815260208082018e815261ffff88811694840194855260038d81018054600180820183556000928352959091209551910290940193845590518383015592516002909201805461ffff191692909316919091179091558801805488019055611f69868661237f565b91506001606060020a03198a81169083161461201957611f89868661226b565b600160a060020a03811660008181526001602090815260409182902080548c01905581518b8152915193945091927f275a11e033325e9b28a23131fcc7e243a49bb38beb686051976dd8c8899d9a3c929181900390910190a2604080518881529051600160a060020a0383169160009160008051602061333d8339815191529181900360200190a3869850612029565b6002880180548890039055600098505b50505050505050509392505050565b6000606060008060008060008060008960600151518a6080015163ffffffff161015156120695761ead89850612186565b6302faf0809650896080015193508392505b8a8510801561209457508960600151518363ffffffff16105b156120d55760608a0151805163ffffffff85169081106120b057fe5b60209081029091010151516305f5e1009790970196949094019360019092019161207b565b8a8510156120e75761eae29850612186565b868b116120f85761eaec9850612186565b83830391508163ffffffff1660405190808252806020026020018201604052801561212d578160200160208202803883390190505b509750600090505b8163ffffffff168163ffffffff16101561217c57838101888263ffffffff1681518110151561216057fe5b63ffffffff909216602092830290910190910152600101612135565b600098508a850395505b505050505092959194509250565b600080600080845160411415156121ae5760009350612262565b505050602082015160218301516041840151909160001a601b60ff821610156121d557601b015b8060ff16601b141580156121ed57508060ff16601c14155b156121fb5760009350612262565b60408051600080825260208083018085528a905260ff8516838501526060830187905260808301869052925160019360a0808501949193601f19840193928390039091019190865af1158015612255573d6000803e3d6000fd5b5050506020604051035193505b50505092915050565b600080806401000003d01985860991506401000003d01985830991506401000003d0196007830891506122c5827f3fffffffffffffffffffffffffffffffffffffffffffffffffffffffbfffff0c6401000003d0196126ff565b9050600180821614841515146122de576401000003d019035b6401000003d01981820982146122f357600080fd5b848160405160200180838152602001828152602001925050506040516020818303038152906040526040518082805190602001908083835b6020831061234a5780518252601f19909201916020918201910161232b565b5181516020939093036101000a6000190180199091169216919091179052604051920182900390912098975050505050505050565b600080826123ad577f02000000000000000000000000000000000000000000000000000000000000006123cf565b7f03000000000000000000000000000000000000000000000000000000000000005b604080517fff0000000000000000000000000000000000000000000000000000000000000083166020808301919091526021808301899052835180840390910181526041909201928390528151939450600393600293918291908401908083835b6020831061244f5780518252601f199092019160209182019101612430565b51815160209384036101000a600019018019909216911617905260405191909301945091925050808303816000865af1158015612490573d6000803e3d6000fd5b5050506040513d60208110156124a557600080fd5b50516040805160208181019390935281518082038401815290820191829052805190928291908401908083835b602083106124f15780518252601f1990920191602091820191016124d2565b51815160209384036101000a600019018019909216911617905260405191909301945091925050808303816000865af1158015612532573d6000803e3d6000fd5b5050604051516c010000000000000000000000000295945050505050565b60008060008061255e61327f565b6004808252606090819081908190819061257b908d906000612749565b885281519096509094506125a7908d908690600090811061259857fe5b90602001906020020151612852565b151560a0880152608087015285516125c2908d906002612881565b8952815190955090935090915061260a908d90849060009081106125e257fe5b906020019060200201518560008151811015156125fb57fe5b906020019060200201516129df565b6001606060020a031916602087015280518190600090811061262857fe5b60209081029091018101516040880152600060608801528601516001606060020a0319908116908c16146126b7576126828c83600181518110151561266957fe5b906020019060200201518560018151811015156125fb57fe5b6001606060020a03191660208701528051819060019081106126a057fe5b602090810290910101516040870152600160608701525b60208601516001606060020a03198c81169116146126d457600080fd5b856040015186608001518760a001518860600151995099509950995050505050505092959194509250565b600060405160208152602080820152602060408201528460608201528360808201528260a082015260208160c08360006005600019f1151561274057600080fd5b51949350505050565b60608060008060008060608060006127618c8c612a0a565b9b5095508915806127715750858a115b1561277e57859450612782565b8994505b846040519080825280602002602001820160405280156127ac578160200160208202803883390190505b509250846040519080825280602002602001820160405280156127d9578160200160208202803883390190505b509150600090505b84811015612842578a83828151811015156127f857fe5b6020908102909101015260249a909a01996128138c8c612a0a565b8351909c50909450849083908390811061282957fe5b60209081029091010152998301600401996001016127e1565b50909a9099509650505050505050565b60240160008080806128648686612a0a565b955061287290508686612acc565b50909890975095505050505050565b60608060606000806000806060806060600061289d8e8e612a0a565b9d5096508b15806128ad5750868c115b156128ba578695506128be565b8b95505b856040519080825280602002602001820160405280156128e8578160200160208202803883390190505b50935085604051908082528060200260200182016040528015612915578160200160208202803883390190505b50925085604051908082528060200260200182016040528015612942578160200160208202803883390190505b509150600090505b858110156129cd5761295e8e8e6040612b03565b828281518110151561296c57fe5b6020908102909101015260089c909c019b6129878e8e612a0a565b8551909e509095508d9085908390811061299d57fe5b60209081029091010152825185908490839081106129b757fe5b602090810290910101529b84019b60010161294a565b509c919b509998509650505050505050565b60006129ec848484612e24565b15612a05576129fe8484600301612f6a565b9050610b4d565b610b4d565b60008060008484815181101515612a1d57fe5b90602001015160f860020a900460f860020a0260f860020a9004905060018401935060fd8160ff161015612a595760ff81169250839150612ac4565b8060ff1660fd1415612a7e57612a7185856010612b03565b8460020192509250612ac4565b8060ff1660fe1415612aa357612a9685856020612b03565b8460040192509250612ac4565b8060ff1660ff1415612ac457612abb85856040612b03565b84600801925092505b509250929050565b606060008060006060600080612ae28989612fdf565b98509250612af08989613060565b949b919a50985092965091945050505050565b60008160081415612b40578383815181101515612b1c57fe5b90602001015160f860020a900460f860020a0260f860020a900460ff169050610b4d565b8160101415612bac578383600101815181101515612b5a57fe5b90602001015160f860020a900460f860020a0260f860020a9004610100028484815181101515612b8657fe5b90602001015160f860020a900460f860020a0260f860020a90040161ffff169050610b4d565b8160201415612c7d578383600301815181101515612bc657fe5b90602001015160f860020a900460f860020a0260f860020a90046301000000028484600201815181101515612bf757fe5b90602001015160f860020a900460f860020a0260f860020a900462010000028585600101815181101515612c2757fe5b90602001015160f860020a900460f860020a0260f860020a9004610100028686815181101515612c5357fe5b90602001015160f860020a900460f860020a0260f860020a900401010163ffffffff169050610b4d565b8160401415610b4d578383600701815181101515612c9757fe5b90602001015160f860020a900460f860020a0260f860020a9004670100000000000000028484600601815181101515612ccc57fe5b90602001015160f860020a900460f860020a0260f860020a90046601000000000000028585600501815181101515612d0057fe5b90602001015160f860020a900460f860020a0260f860020a900465010000000000028686600401815181101515612d3357fe5b90602001015160f860020a900460f860020a0260f860020a9004640100000000028787600301815181101515612d6557fe5b90602001015160f860020a900460f860020a0260f860020a90046301000000028888600201815181101515612d9657fe5b90602001015160f860020a900460f860020a0260f860020a900462010000028989600101815181101515612dc657fe5b90602001015160f860020a900460f860020a0260f860020a9004610100028a8a815181101515612df257fe5b90602001015160f860020a900460f860020a0260f860020a90040101010101010167ffffffffffffffff169050610b4d565b6000816019148015612e6657508383815181101515612e3f57fe5b90602001015160f860020a900460f860020a02600160f860020a031916607660f860020a02145b8015612ea557508383600101815181101515612e7e57fe5b90602001015160f860020a900460f860020a02600160f860020a03191660a960f860020a02145b8015612ee457508383600201815181101515612ebd57fe5b90602001015160f860020a900460f860020a02600160f860020a031916601460f860020a02145b8015612f2357508383601701815181101515612efc57fe5b90602001015160f860020a900460f860020a02600160f860020a031916608860f860020a02145b8015612f6257508383601801815181101515612f3b57fe5b90602001015160f860020a900460f860020a02600160f860020a03191660ac60f860020a02145b949350505050565b600080805b6014811015612fc8578060130360080285858301815181101515612f8f57fe5b90602001015160f860020a900460f860020a0260f860020a9004600160a060020a03169060020a02820191508080600101915050612f6f565b506c01000000000000000000000000029392505050565b60606000806060612ff08686613102565b95509150600960ff83161080159061300c575060498260ff1611155b151561301757600080fd5b858581518110151561302557fe5b90602001015160f860020a900460f860020a0260f860020a900460ff16603014151561305057600080fd5b9560ff9091169390930193505050565b6000806000806000806130738888613102565b97509250602160ff84161461308757600080fd5b878781518110151561309557fe5b6020910101519787016021908101519960f860020a998a90049099027fff00000000000000000000000000000000000000000000000000000000000000167f0300000000000000000000000000000000000000000000000000000000000000149897019695505050505050565b600080838381518110151561311357fe5b016020015160f860020a90819004810204915050600182019250929050565b828054600181600116156101000203166002900490600052602060002090601f016020900481019282601f1061317357805160ff19168380011785556131a0565b828001600101855582156131a0579182015b828111156131a0578251825591602001919060010190613185565b506131ac9291506132b4565b5090565b8280548282559060005260206000209060070160089004810192821561324f5791602002820160005b8382111561321d57835183826101000a81548163ffffffff021916908363ffffffff16021790555092602001926004016020816003010492830192600103026131d9565b801561324d5782816101000a81549063ffffffff021916905560040160208160030104928301926001030261321d565b505b506131ac9291506132ce565b508054600082556003029060005260206000209081019061327c91906132ef565b50565b6040805160c081018252600080825260208201819052918101829052606081018290526080810182905260a081019190915290565b61198191905b808211156131ac57600081556001016132ba565b61198191905b808211156131ac57805463ffffffff191681556001016132d4565b61198191905b808211156131ac576000808255600182015560028101805461ffff191690556003016132f55600b56073699a886ff0a9e8b995881e51b5ccd562594c835e990ad2f7c35957a5a4ddf252ad1be2c89b69c2b068fc378daa952ba7f163c4a11628f55a4df523b3efa165627a7a723058209618f72024dd078849ad2b912020a78111742f548c193df2e0a14e7dab7f7c000029",
  "source": "pragma solidity ^0.4.8;\n\nimport \"./HumanStandardToken.sol\";\nimport \"./Set.sol\";\nimport \"./../TransactionProcessor.sol\";\nimport \"../DogeParser/DogeTx.sol\";\nimport \"./../ECRecovery.sol\";\n\ncontract DogeToken is HumanStandardToken(0, \"DogeToken\", 8, \"DOGETOKEN\"), TransactionProcessor {\n\n    // Constants\n    uint public constant MIN_LOCK_VALUE = 150000000; // 1.5 doges\n    uint public constant MIN_UNLOCK_VALUE = 300000000; // 3 doges\n    uint constant MIN_FEE = 100000000; // 1 doge\n    uint constant BASE_FEE = 50000000; // 0.5 doge\n    uint constant FEE_PER_INPUT = 100000000; // 1 doge\n\n    // Error codes\n    uint constant ERR_OPERATOR_SIGNATURE = 60010;\n    uint constant ERR_OPERATOR_ALREADY_CREATED = 60020;\n    uint constant ERR_OPERATOR_NOT_CREATED_OR_WRONG_SENDER = 60020;\n    uint constant ERR_OPERATOR_HAS_BALANCE = 60030;\n    uint constant ERR_OPERATOR_WITHDRAWAL_NOT_ENOUGH_BALANCE = 60040;\n    uint constant ERR_OPERATOR_WITHDRAWAL_COLLATERAL_WOULD_BE_TOO_LOW = 60050;\n    uint constant ERR_PROCESS_OPERATOR_NOT_CREATED = 60060;\n    uint constant ERR_PROCESS_TX_ALREADY_PROCESSED = 60070;\n    uint constant ERR_UNLOCK_MIN_UNLOCK_VALUE = 60080;\n    uint constant ERR_UNLOCK_USER_BALANCE = 60090;\n    uint constant ERR_UNLOCK_OPERATOR_NOT_CREATED = 60100;\n    uint constant ERR_UNLOCK_OPERATOR_BALANCE = 60110;    \n    uint constant ERR_UNLOCK_NO_AVAILABLE_UTXOS = 60120;\n    uint constant ERR_UNLOCK_UTXOS_VALUE_LESS_THAN_VALUE_TO_SEND = 60130;\n    uint constant ERR_UNLOCK_VALUE_TO_SEND_LESS_THAN_FEE = 60140;\n\n\n\n    // Variables sets by constructor\n    // DogeRelay contract to trust. Only doge txs relayed from DogeRelay will be accepted.\n    address public trustedDogeRelay;\n    // Doge-Eth price oracle to trust.\n    address public trustedDogeEthPriceOracle;\n    // Number of times the operator eth collateral should cover her doge holdings \n    uint8 collateralRatio;\n\n\n    // counter for next unlock\n    uint32 public unlockIdx;\n    // Unlocks the investor has not sent a proof of unlock yet.\n    mapping (uint32 => Unlock) public unlocksPendingInvestorProof;\n    // Doge-Eth currencies current market price.\n    uint public dogeEthPrice;\n    // operatorPublicKeyHash to Operator\n    mapping (bytes20 => Operator) public operators;\n    OperatorKey[] public operatorKeys;\n\n    // Doge transactions that were already processed by processTransaction()\n    Set.Data dogeTxHashesAlreadyProcessed;\n\n    event ErrorDogeToken(uint err);\n    event NewToken(address indexed user, uint value);\n    event UnlockRequest(uint32 id, bytes20 operatorPublicKeyHash);\n\n    // Represents an unlock request\n    struct Unlock {\n          address from;\n          string dogeAddress;\n          uint value;\n          uint timestamp;\n          // Values are indexes in storage array \"utxos\"\n          uint32[] selectedUtxos;\n          uint fee;\n          bytes20 operatorPublicKeyHash;\n    }\n\n    struct Utxo {\n          uint value;\n          uint txHash;\n          uint16 index;\n    }\n\n    struct Operator {\n        address ethAddress;\n        uint dogeAvailableBalance;\n        uint dogePendingBalance;\n        Utxo[] utxos;\n        uint32 nextUnspentUtxoIndex;\n        uint ethBalance;\n        uint24 operatorKeyIndex;\n    }\n\n    struct OperatorKey { \n        bytes20 key; \n        bool deleted;\n    }\n\n    constructor (address _trustedDogeRelay, address _trustedDogeEthPriceOracle, uint8 _collateralRatio) public {\n        trustedDogeRelay = _trustedDogeRelay;\n        trustedDogeEthPriceOracle = _trustedDogeEthPriceOracle;\n        collateralRatio = _collateralRatio;\n    }\n\n    // Adds an operator\n    // @param operatorPublicKey operator compressed public key (33 bytes). \n    //                          operator[0] = odd\n    //                          operator[1-32] = x\n    // @param signature doubleSha256(msg.sender) signed by operator (65 bytes).\n    //                  signature[0] = v\n    //                  signature[1-32] = r\n    //                  signature[33-64] = s\n    function addOperator(bytes operatorPublicKey, bytes signature) public {\n        //log0(bytes32(operatorPublicKey.length));\n        //log0(bytes32(signature.length));\n\n        // Parse operatorPublicKey\n        bytes32 operatorPublicKeyX;\n        bool operatorPublicKeyOdd;\n        operatorPublicKeyOdd = operatorPublicKey[0] == 0x03;\n        assembly {\n            operatorPublicKeyX := mload(add(operatorPublicKey, 0x21))\n        }\n        //log1(operatorPublicKeyX, bytes32(operatorPublicKeyOdd ? 1 : 0));\n\n        // Check operatorPublicKey signed msg.sender hash\n        bytes32 signedMessage = sha256(abi.encodePacked(sha256(abi.encodePacked(msg.sender))));\n        //log1(bytes20(msg.sender), signedMessage);\n        address recoveredAddress = ECRecovery.recover(signedMessage, signature);\n        //log1(bytes32(recoveredAddress),\n        //     bytes32(DogeTx.pub2address(uint(operatorPublicKeyX), operatorPublicKeyOdd)));                \n        if (recoveredAddress != DogeTx.pub2address(uint(operatorPublicKeyX), operatorPublicKeyOdd)) {\n            emit ErrorDogeToken(ERR_OPERATOR_SIGNATURE);\n            return;\n        }\n        // Create operator\n        bytes20 operatorPublicKeyHash = DogeTx.pub2PubKeyHash(operatorPublicKeyX, operatorPublicKeyOdd);\n        //log0(operatorPublicKeyHash);\n        Operator storage operator = operators[operatorPublicKeyHash];\n        // Check operator does not exists yet\n        //log1(bytes20(operator.ethAddress), bytes32((operator.ethAddress == 0) ? 0 : 1));\n        if (operator.ethAddress != 0) {\n            emit ErrorDogeToken(ERR_OPERATOR_ALREADY_CREATED);\n            return;\n        }        \n        operator.ethAddress = msg.sender;\n        operator.operatorKeyIndex = uint24(operatorKeys.length);\n        operatorKeys.push(OperatorKey(operatorPublicKeyHash, false));\n        \n    }\n\n    function deleteOperator(bytes20 operatorPublicKeyHash) public {\n        Operator storage operator = operators[operatorPublicKeyHash];\n        if (operator.ethAddress != msg.sender) {\n            emit ErrorDogeToken(ERR_OPERATOR_NOT_CREATED_OR_WRONG_SENDER);\n            return;\n        }        \n        if (operator.dogeAvailableBalance != 0 || operator.dogePendingBalance != 0 || operator.ethBalance != 0) {\n            emit ErrorDogeToken(ERR_OPERATOR_HAS_BALANCE);\n            return;\n        }        \n\n        OperatorKey storage operatorKey = operatorKeys[operator.operatorKeyIndex]; \n        operatorKey.deleted = true;\n        delete operators[operatorPublicKeyHash];\n    }\n\n    function getOperatorsLength() public view returns (uint24) {\n        return uint24(operatorKeys.length);\n    }\n\n\n    function addOperatorDeposit(bytes20 operatorPublicKeyHash) public payable {\n        Operator storage operator = operators[operatorPublicKeyHash];\n        if (operator.ethAddress != msg.sender) {\n            emit ErrorDogeToken(ERR_OPERATOR_NOT_CREATED_OR_WRONG_SENDER);\n            return;\n        }        \n        operator.ethBalance += msg.value;\n    }\n\n    function withdrawOperatorDeposit(bytes20 operatorPublicKeyHash, uint value) public {\n        Operator storage operator = operators[operatorPublicKeyHash];\n        if (operator.ethAddress != msg.sender) {\n            emit ErrorDogeToken(ERR_OPERATOR_NOT_CREATED_OR_WRONG_SENDER);\n            return;\n        }\n        if (operator.ethBalance < value) {\n            emit ErrorDogeToken(ERR_OPERATOR_WITHDRAWAL_NOT_ENOUGH_BALANCE);\n            return;\n        }        \n        if ((operator.ethBalance - value) / dogeEthPrice < (operator.dogeAvailableBalance + operator.dogePendingBalance) * collateralRatio) {\n            emit ErrorDogeToken(ERR_OPERATOR_WITHDRAWAL_COLLATERAL_WOULD_BE_TOO_LOW);\n            return;        \n        }\n        operator.ethBalance -= value;\n        msg.sender.transfer(value);\n    }\n\n\n    function processTransaction(bytes dogeTx, uint txHash, bytes20 operatorPublicKeyHash) public returns (uint) {\n        require(msg.sender == trustedDogeRelay);\n\n        Operator storage operator = operators[operatorPublicKeyHash];\n        // Check operator exists \n        if (operator.ethAddress == 0) {\n            emit ErrorDogeToken(ERR_PROCESS_OPERATOR_NOT_CREATED);\n            return;\n        }        \n\n        uint value;\n        bytes32 firstInputPublicKeyX;\n        bool firstInputPublicKeyOdd;\n        uint16 outputIndex;\n        (value, firstInputPublicKeyX, firstInputPublicKeyOdd, outputIndex) = DogeTx.parseTransaction(dogeTx, operatorPublicKeyHash);\n\n        // Add tx to the dogeTxHashesAlreadyProcessed\n        bool inserted = Set.insert(dogeTxHashesAlreadyProcessed, txHash);\n        // Check tx was not already processed\n        if (!inserted) {\n            emit ErrorDogeToken(ERR_PROCESS_TX_ALREADY_PROCESSED);\n            return;        \n        }\n\n        // Add utxo\n        operator.utxos.push(Utxo(value, txHash, outputIndex));\n\n        // Update operator's doge balance\n        operator.dogeAvailableBalance += value;\n\n        // See if the first input was signed by the operator\n        bytes20 firstInputPublicKeyHash = DogeTx.pub2PubKeyHash(firstInputPublicKeyX, firstInputPublicKeyOdd);\n        if (operatorPublicKeyHash != firstInputPublicKeyHash) {\n            // this is a lock tx\n            // Calculate ethereum address from dogecoin public key\n            address destinationAddress = DogeTx.pub2address(uint(firstInputPublicKeyX), firstInputPublicKeyOdd);\n\n            balances[destinationAddress] += value;\n            emit NewToken(destinationAddress, value);\n            // Hack to make etherscan show the event\n            emit Transfer(0, destinationAddress, value);\n\n            return value;\n        } else {\n            // this is an unlock tx\n            // Update operator's doge balance\n            operator.dogePendingBalance -= value;\n            return 0;\n        }\n    }\n\n    function wasDogeTxProcessed(uint txHash) public view returns (bool) {\n        return Set.contains(dogeTxHashesAlreadyProcessed, txHash);\n    }\n\n    // Unlock section begin\n\n\n    // Request ERC20 tokens to be burnt and dogecoins be received on the doge blockchain\n    function doUnlock(string dogeAddress, uint value, bytes20 operatorPublicKeyHash) public returns (bool success) {\n        if (value < MIN_UNLOCK_VALUE) {\n            emit ErrorDogeToken(ERR_UNLOCK_MIN_UNLOCK_VALUE);\n            return;\n        }\n        if (balances[msg.sender] < value) {\n            emit ErrorDogeToken(ERR_UNLOCK_USER_BALANCE);\n            return;\n        }\n\n        Operator storage operator = operators[operatorPublicKeyHash];\n        // Check operator exists \n        if (operator.ethAddress == 0) {\n            emit ErrorDogeToken(ERR_UNLOCK_OPERATOR_NOT_CREATED);\n            return;\n        }\n        // Check operator available balance is enough\n        if (operator.dogeAvailableBalance < value) {\n            emit ErrorDogeToken(ERR_UNLOCK_OPERATOR_BALANCE);\n            return;\n        }\n\n        uint32[] memory selectedUtxos;\n        uint fee;\n        uint changeValue;\n        uint errorCode;\n        (errorCode, selectedUtxos, fee, changeValue) = selectUtxosAndFee(value, operator);\n        if (errorCode != 0) {\n            emit ErrorDogeToken(errorCode);\n            return;\n        }\n\n        balances[msg.sender] -= value;\n        // Hack to make etherscan show the event\n        emit Transfer(msg.sender, 0, value);\n        emit UnlockRequest(unlockIdx, operatorPublicKeyHash);\n        //log1(bytes32(selectedUtxos.length), bytes32(selectedUtxos[0]));\n        unlocksPendingInvestorProof[unlockIdx] = Unlock(msg.sender, dogeAddress, value, \n                                                        block.timestamp, selectedUtxos, fee, operatorPublicKeyHash);\n        // Update operator's doge balance\n        operator.dogeAvailableBalance -= (value + changeValue);\n        operator.dogePendingBalance += changeValue;\n        operator.nextUnspentUtxoIndex += uint32(selectedUtxos.length);\n        unlockIdx++;\n        return true;\n    }\n\n    function selectUtxosAndFee(uint valueToSend, Operator operator) private pure returns (uint errorCode, uint32[] memory selectedUtxos, uint fee, uint changeValue) {\n        // There should be at least 1 utxo available\n        if (operator.nextUnspentUtxoIndex >= operator.utxos.length) {\n            errorCode = ERR_UNLOCK_NO_AVAILABLE_UTXOS;\n            return (errorCode, selectedUtxos, fee, changeValue);\n        }\n        fee = BASE_FEE;\n        uint selectedUtxosValue;\n        uint32 firstSelectedUtxo = operator.nextUnspentUtxoIndex;\n        uint32 lastSelectedUtxo = firstSelectedUtxo;\n        while (selectedUtxosValue < valueToSend && (lastSelectedUtxo < operator.utxos.length)) {\n            selectedUtxosValue += operator.utxos[lastSelectedUtxo].value;\n            fee += FEE_PER_INPUT;\n            lastSelectedUtxo++;\n        }\n        if (selectedUtxosValue < valueToSend) {\n            errorCode = ERR_UNLOCK_UTXOS_VALUE_LESS_THAN_VALUE_TO_SEND;\n            return (errorCode, selectedUtxos, fee, changeValue);\n        }\n        if (valueToSend <= fee) {\n            errorCode = ERR_UNLOCK_VALUE_TO_SEND_LESS_THAN_FEE;\n            return (errorCode, selectedUtxos, fee, changeValue);\n        }\n        uint32 numberOfSelectedUtxos = lastSelectedUtxo - firstSelectedUtxo;\n        selectedUtxos = new uint32[](numberOfSelectedUtxos);\n        for(uint32 i = 0; i < numberOfSelectedUtxos; i++) {\n            selectedUtxos[i] = i + firstSelectedUtxo;\n        }\n        changeValue = selectedUtxosValue - valueToSend;\n        errorCode = 0;\n        return (errorCode, selectedUtxos, fee, changeValue);\n    }\n\n    function setDogeEthPrice(uint _dogeEthPrice) public {\n        require(msg.sender == trustedDogeEthPriceOracle);\n        dogeEthPrice = _dogeEthPrice;\n    }\n\n    function getUnlockPendingInvestorProof(uint32 index) public view returns (address from, string dogeAddress, uint value, uint timestamp, uint32[] selectedUtxos, uint fee, bytes20 operatorPublicKeyHash) {\n        Unlock storage unlock = unlocksPendingInvestorProof[index];\n        from = unlock.from;\n        dogeAddress = unlock.dogeAddress;\n        value = unlock.value;\n        timestamp = unlock.timestamp;\n        selectedUtxos = unlock.selectedUtxos;\n        fee = unlock.fee;\n        operatorPublicKeyHash = unlock.operatorPublicKeyHash;\n    }    \n\n    function getUtxosLength(bytes20 operatorPublicKeyHash) public view returns (uint) {\n        Operator storage operator = operators[operatorPublicKeyHash];\n        return operator.utxos.length;\n    }\n\n    function getUtxo(bytes20 operatorPublicKeyHash, uint i) public view returns (uint value, uint txHash, uint16 index) {\n        Operator storage operator = operators[operatorPublicKeyHash];\n        Utxo storage utxo = operator.utxos[i];\n        return (utxo.value, utxo.txHash, utxo.index);\n    }\n\n    // Unlock section end\n}\n",
  "sourcePath": "/Users/oscar/codigo/doge/dogerelay/contracts/token/DogeToken.sol",
  "compiler": {
    "name": "solc",
    "version": "0.4.24+commit.e67f0147.Emscripten.clang"
  },
  "schemaVersion": "2.0.0",
  "updatedAt": "2018-06-18T18:56:17.694Z"
}